{
  "contractName": "VaccinationPortal",
  "abi": [
    {
      "inputs": [],
      "payable": false,
      "stateMutability": "nonpayable",
      "type": "constructor"
    },
    {
      "constant": true,
      "inputs": [
        {
          "internalType": "string",
          "name": "",
          "type": "string"
        }
      ],
      "name": "centers",
      "outputs": [
        {
          "internalType": "address",
          "name": "account",
          "type": "address"
        },
        {
          "internalType": "string",
          "name": "centerID",
          "type": "string"
        },
        {
          "internalType": "string",
          "name": "centerAddress",
          "type": "string"
        },
        {
          "internalType": "string",
          "name": "staticKey",
          "type": "string"
        },
        {
          "internalType": "int16",
          "name": "numVaccinations",
          "type": "int16"
        }
      ],
      "payable": false,
      "stateMutability": "view",
      "type": "function"
    },
    {
      "constant": true,
      "inputs": [
        {
          "internalType": "string",
          "name": "",
          "type": "string"
        }
      ],
      "name": "citizens",
      "outputs": [
        {
          "internalType": "string",
          "name": "pseudoUUID",
          "type": "string"
        },
        {
          "internalType": "string",
          "name": "secretCode",
          "type": "string"
        },
        {
          "internalType": "string",
          "name": "staticKey",
          "type": "string"
        },
        {
          "internalType": "uint256",
          "name": "doses",
          "type": "uint256"
        }
      ],
      "payable": false,
      "stateMutability": "view",
      "type": "function"
    },
    {
      "constant": true,
      "inputs": [],
      "name": "govtAgency",
      "outputs": [
        {
          "internalType": "address",
          "name": "",
          "type": "address"
        }
      ],
      "payable": false,
      "stateMutability": "view",
      "type": "function"
    },
    {
      "constant": true,
      "inputs": [],
      "name": "totalCenters",
      "outputs": [
        {
          "internalType": "uint256",
          "name": "",
          "type": "uint256"
        }
      ],
      "payable": false,
      "stateMutability": "view",
      "type": "function"
    },
    {
      "constant": true,
      "inputs": [],
      "name": "totalCitizens",
      "outputs": [
        {
          "internalType": "uint256",
          "name": "",
          "type": "uint256"
        }
      ],
      "payable": false,
      "stateMutability": "view",
      "type": "function"
    },
    {
      "constant": true,
      "inputs": [],
      "name": "totalVaccinations",
      "outputs": [
        {
          "internalType": "uint256",
          "name": "",
          "type": "uint256"
        }
      ],
      "payable": false,
      "stateMutability": "view",
      "type": "function"
    },
    {
      "constant": true,
      "inputs": [
        {
          "internalType": "string",
          "name": "",
          "type": "string"
        }
      ],
      "name": "vaccinations",
      "outputs": [
        {
          "internalType": "string",
          "name": "vaccinationID",
          "type": "string"
        },
        {
          "internalType": "string",
          "name": "citizenPseudoUUID",
          "type": "string"
        },
        {
          "internalType": "string",
          "name": "vaccineName",
          "type": "string"
        },
        {
          "internalType": "uint256",
          "name": "doseNumber",
          "type": "uint256"
        },
        {
          "internalType": "string",
          "name": "centerID",
          "type": "string"
        },
        {
          "internalType": "string",
          "name": "healthInfo",
          "type": "string"
        }
      ],
      "payable": false,
      "stateMutability": "view",
      "type": "function"
    },
    {
      "constant": false,
      "inputs": [
        {
          "internalType": "string",
          "name": "_pseudoUUID",
          "type": "string"
        },
        {
          "internalType": "string",
          "name": "_secretCode",
          "type": "string"
        },
        {
          "internalType": "string",
          "name": "_staticKey",
          "type": "string"
        }
      ],
      "name": "registerCitizen",
      "outputs": [],
      "payable": false,
      "stateMutability": "nonpayable",
      "type": "function"
    },
    {
      "constant": false,
      "inputs": [
        {
          "internalType": "string",
          "name": "_centerID",
          "type": "string"
        },
        {
          "internalType": "string",
          "name": "_centerAddress",
          "type": "string"
        },
        {
          "internalType": "string",
          "name": "_staticKey",
          "type": "string"
        }
      ],
      "name": "registerCenter",
      "outputs": [],
      "payable": false,
      "stateMutability": "nonpayable",
      "type": "function"
    },
    {
      "constant": false,
      "inputs": [
        {
          "internalType": "string",
          "name": "_vaccinationID",
          "type": "string"
        },
        {
          "internalType": "string",
          "name": "_citizenPseudoUUID",
          "type": "string"
        },
        {
          "internalType": "string",
          "name": "_vaccineName",
          "type": "string"
        },
        {
          "internalType": "uint256",
          "name": "_doseNumber",
          "type": "uint256"
        },
        {
          "internalType": "string",
          "name": "_centerID",
          "type": "string"
        },
        {
          "internalType": "string",
          "name": "_healthInfo",
          "type": "string"
        }
      ],
      "name": "vaccinate",
      "outputs": [],
      "payable": false,
      "stateMutability": "nonpayable",
      "type": "function"
    }
  ],
  "bytecode": "0x608060405234801561001057600080fd5b50336000806101000a81548173ffffffffffffffffffffffffffffffffffffffff021916908373ffffffffffffffffffffffffffffffffffffffff16021790555060006004819055506000600581905550600060068190555061229c806100786000396000f3fe608060405234801561001057600080fd5b506004361061009e5760003560e01c8063916ad99c11610066578063916ad99c1461088b578063b90d3edb14610a74578063bd7b09e414610d5f578063cb1ab1f814610d7d578063d9bf255c14610d9b5761009e565b80630d98f5bb146100a35780633923b510146102b65780633f0751b11461030057806344d793121461054c578063694d86281461056a575b600080fd5b61015c600480360360208110156100b957600080fd5b81019080803590602001906401000000008111156100d657600080fd5b8201836020820111156100e857600080fd5b8035906020019184600183028401116401000000008311171561010a57600080fd5b91908080601f016020809104026020016040519081016040528093929190818152602001838380828437600081840152601f19601f820116905080830192505050505050509192919290505050610f84565b60405180806020018060200180602001858152602001848103845288818151815260200191508051906020019080838360005b838110156101aa57808201518184015260208101905061018f565b50505050905090810190601f1680156101d75780820380516001836020036101000a031916815260200191505b50848103835287818151815260200191508051906020019080838360005b838110156102105780820151818401526020810190506101f5565b50505050905090810190601f16801561023d5780820380516001836020036101000a031916815260200191505b50848103825286818151815260200191508051906020019080838360005b8381101561027657808201518184015260208101905061025b565b50505050905090810190601f1680156102a35780820380516001836020036101000a031916815260200191505b5097505050505050505060405180910390f35b6102be611192565b604051808273ffffffffffffffffffffffffffffffffffffffff1673ffffffffffffffffffffffffffffffffffffffff16815260200191505060405180910390f35b6103b96004803603602081101561031657600080fd5b810190808035906020019064010000000081111561033357600080fd5b82018360208201111561034557600080fd5b8035906020019184600183028401116401000000008311171561036757600080fd5b91908080601f016020809104026020016040519081016040528093929190818152602001838380828437600081840152601f19601f8201169050808301925050505050505091929192905050506111b7565b604051808673ffffffffffffffffffffffffffffffffffffffff1673ffffffffffffffffffffffffffffffffffffffff1681526020018060200180602001806020018560010b60010b8152602001848103845288818151815260200191508051906020019080838360005b8381101561043f578082015181840152602081019050610424565b50505050905090810190601f16801561046c5780820380516001836020036101000a031916815260200191505b50848103835287818151815260200191508051906020019080838360005b838110156104a557808201518184015260208101905061048a565b50505050905090810190601f1680156104d25780820380516001836020036101000a031916815260200191505b50848103825286818151815260200191508051906020019080838360005b8381101561050b5780820151818401526020810190506104f0565b50505050905090810190601f1680156105385780820380516001836020036101000a031916815260200191505b509850505050505050505060405180910390f35b6105546113f8565b6040518082815260200191505060405180910390f35b610889600480360360c081101561058057600080fd5b810190808035906020019064010000000081111561059d57600080fd5b8201836020820111156105af57600080fd5b803590602001918460018302840111640100000000831117156105d157600080fd5b91908080601f016020809104026020016040519081016040528093929190818152602001838380828437600081840152601f19601f8201169050808301925050505050505091929192908035906020019064010000000081111561063457600080fd5b82018360208201111561064657600080fd5b8035906020019184600183028401116401000000008311171561066857600080fd5b91908080601f016020809104026020016040519081016040528093929190818152602001838380828437600081840152601f19601f820116905080830192505050505050509192919290803590602001906401000000008111156106cb57600080fd5b8201836020820111156106dd57600080fd5b803590602001918460018302840111640100000000831117156106ff57600080fd5b91908080601f016020809104026020016040519081016040528093929190818152602001838380828437600081840152601f19601f820116905080830192505050505050509192919290803590602001909291908035906020019064010000000081111561076c57600080fd5b82018360208201111561077e57600080fd5b803590602001918460018302840111640100000000831117156107a057600080fd5b91908080601f016020809104026020016040519081016040528093929190818152602001838380828437600081840152601f19601f8201169050808301925050505050505091929192908035906020019064010000000081111561080357600080fd5b82018360208201111561081557600080fd5b8035906020019184600183028401116401000000008311171561083757600080fd5b91908080601f016020809104026020016040519081016040528093929190818152602001838380828437600081840152601f19601f8201169050808301925050505050505091929192905050506113fe565b005b610a72600480360360608110156108a157600080fd5b81019080803590602001906401000000008111156108be57600080fd5b8201836020820111156108d057600080fd5b803590602001918460018302840111640100000000831117156108f257600080fd5b91908080601f016020809104026020016040519081016040528093929190818152602001838380828437600081840152601f19601f8201169050808301925050505050505091929192908035906020019064010000000081111561095557600080fd5b82018360208201111561096757600080fd5b8035906020019184600183028401116401000000008311171561098957600080fd5b91908080601f016020809104026020016040519081016040528093929190818152602001838380828437600081840152601f19601f820116905080830192505050505050509192919290803590602001906401000000008111156109ec57600080fd5b8201836020820111156109fe57600080fd5b80359060200191846001830284011164010000000083111715610a2057600080fd5b91908080601f016020809104026020016040519081016040528093929190818152602001838380828437600081840152601f19601f820116905080830192505050505050509192919290505050611b15565b005b610b2d60048036036020811015610a8a57600080fd5b8101908080359060200190640100000000811115610aa757600080fd5b820183602082011115610ab957600080fd5b80359060200191846001830284011164010000000083111715610adb57600080fd5b91908080601f016020809104026020016040519081016040528093929190818152602001838380828437600081840152601f19601f820116905080830192505050505050509192919290505050611c74565b60405180806020018060200180602001878152602001806020018060200186810386528c818151815260200191508051906020019080838360005b83811015610b83578082015181840152602081019050610b68565b50505050905090810190601f168015610bb05780820380516001836020036101000a031916815260200191505b5086810385528b818151815260200191508051906020019080838360005b83811015610be9578082015181840152602081019050610bce565b50505050905090810190601f168015610c165780820380516001836020036101000a031916815260200191505b5086810384528a818151815260200191508051906020019080838360005b83811015610c4f578082015181840152602081019050610c34565b50505050905090810190601f168015610c7c5780820380516001836020036101000a031916815260200191505b50868103835288818151815260200191508051906020019080838360005b83811015610cb5578082015181840152602081019050610c9a565b50505050905090810190601f168015610ce25780820380516001836020036101000a031916815260200191505b50868103825287818151815260200191508051906020019080838360005b83811015610d1b578082015181840152602081019050610d00565b50505050905090810190601f168015610d485780820380516001836020036101000a031916815260200191505b509b50505050505050505050505060405180910390f35b610d67611fbe565b6040518082815260200191505060405180910390f35b610d85611fc4565b6040518082815260200191505060405180910390f35b610f8260048036036060811015610db157600080fd5b8101908080359060200190640100000000811115610dce57600080fd5b820183602082011115610de057600080fd5b80359060200191846001830284011164010000000083111715610e0257600080fd5b91908080601f016020809104026020016040519081016040528093929190818152602001838380828437600081840152601f19601f82011690508083019250505050505050919291929080359060200190640100000000811115610e6557600080fd5b820183602082011115610e7757600080fd5b80359060200191846001830284011164010000000083111715610e9957600080fd5b91908080601f016020809104026020016040519081016040528093929190818152602001838380828437600081840152601f19601f82011690508083019250505050505050919291929080359060200190640100000000811115610efc57600080fd5b820183602082011115610f0e57600080fd5b80359060200191846001830284011164010000000083111715610f3057600080fd5b91908080601f016020809104026020016040519081016040528093929190818152602001838380828437600081840152601f19601f820116905080830192505050505050509192919290505050611fca565b005b600181805160208101820180518482526020830160208501208183528095505050505050600091509050806000018054600181600116156101000203166002900480601f0160208091040260200160405190810160405280929190818152602001828054600181600116156101000203166002900480156110465780601f1061101b57610100808354040283529160200191611046565b820191906000526020600020905b81548152906001019060200180831161102957829003601f168201915b505050505090806001018054600181600116156101000203166002900480601f0160208091040260200160405190810160405280929190818152602001828054600181600116156101000203166002900480156110e45780601f106110b9576101008083540402835291602001916110e4565b820191906000526020600020905b8154815290600101906020018083116110c757829003601f168201915b505050505090806002018054600181600116156101000203166002900480601f0160208091040260200160405190810160405280929190818152602001828054600181600116156101000203166002900480156111825780601f1061115757610100808354040283529160200191611182565b820191906000526020600020905b81548152906001019060200180831161116557829003601f168201915b5050505050908060030154905084565b6000809054906101000a900473ffffffffffffffffffffffffffffffffffffffff1681565b6002818051602081018201805184825260208301602085012081835280955050505050506000915090508060000160009054906101000a900473ffffffffffffffffffffffffffffffffffffffff1690806001018054600181600116156101000203166002900480601f01602080910402602001604051908101604052809291908181526020018280546001816001161561010002031660029004801561129f5780601f106112745761010080835404028352916020019161129f565b820191906000526020600020905b81548152906001019060200180831161128257829003601f168201915b505050505090806002018054600181600116156101000203166002900480601f01602080910402602001604051908101604052809291908181526020018280546001816001161561010002031660029004801561133d5780601f106113125761010080835404028352916020019161133d565b820191906000526020600020905b81548152906001019060200180831161132057829003601f168201915b505050505090806003018054600181600116156101000203166002900480601f0160208091040260200160405190810160405280929190818152602001828054600181600116156101000203166002900480156113db5780601f106113b0576101008083540402835291602001916113db565b820191906000526020600020905b8154815290600101906020018083116113be57829003601f168201915b5050505050908060040160009054906101000a900460010b905085565b60055481565b611406612152565b6001866040518082805190602001908083835b6020831061143c5780518252602082019150602081019050602083039250611419565b6001836020036101000a0380198251168184511680821785525050505050509050019150509081526020016040518091039020604051806080016040529081600082018054600181600116156101000203166002900480601f0160208091040260200160405190810160405280929190818152602001828054600181600116156101000203166002900480156115135780601f106114e857610100808354040283529160200191611513565b820191906000526020600020905b8154815290600101906020018083116114f657829003601f168201915b50505050508152602001600182018054600181600116156101000203166002900480601f0160208091040260200160405190810160405280929190818152602001828054600181600116156101000203166002900480156115b55780601f1061158a576101008083540402835291602001916115b5565b820191906000526020600020905b81548152906001019060200180831161159857829003601f168201915b50505050508152602001600282018054600181600116156101000203166002900480601f0160208091040260200160405190810160405280929190818152602001828054600181600116156101000203166002900480156116575780601f1061162c57610100808354040283529160200191611657565b820191906000526020600020905b81548152906001019060200180831161163a57829003601f168201915b505050505081526020016003820154815250509050600281606001511080156116835750838160600151105b61168c57600080fd5b61169461217a565b6002846040518082805190602001908083835b602083106116ca57805182526020820191506020810190506020830392506116a7565b6001836020036101000a03801982511681845116808217855250505050505090500191505090815260200160405180910390206040518060a00160405290816000820160009054906101000a900473ffffffffffffffffffffffffffffffffffffffff1673ffffffffffffffffffffffffffffffffffffffff1673ffffffffffffffffffffffffffffffffffffffff168152602001600182018054600181600116156101000203166002900480601f0160208091040260200160405190810160405280929190818152602001828054600181600116156101000203166002900480156117f75780601f106117cc576101008083540402835291602001916117f7565b820191906000526020600020905b8154815290600101906020018083116117da57829003601f168201915b50505050508152602001600282018054600181600116156101000203166002900480601f0160208091040260200160405190810160405280929190818152602001828054600181600116156101000203166002900480156118995780601f1061186e57610100808354040283529160200191611899565b820191906000526020600020905b81548152906001019060200180831161187c57829003601f168201915b50505050508152602001600382018054600181600116156101000203166002900480601f01602080910402602001604051908101604052809291908181526020018280546001816001161561010002031660029004801561193b5780601f106119105761010080835404028352916020019161193b565b820191906000526020600020905b81548152906001019060200180831161191e57829003601f168201915b505050505081526020016004820160009054906101000a900460010b60010b60010b8152505090503373ffffffffffffffffffffffffffffffffffffffff16816000015173ffffffffffffffffffffffffffffffffffffffff161461199f57600080fd5b6040518060c00160405280898152602001888152602001878152602001868152602001858152602001848152506003896040518082805190602001908083835b60208310611a0257805182526020820191506020810190506020830392506119df565b6001836020036101000a03801982511681845116808217855250505050505090500191505090815260200160405180910390206000820151816000019080519060200190611a519291906121c2565b506020820151816001019080519060200190611a6e9291906121c2565b506040820151816002019080519060200190611a8b9291906121c2565b50606082015181600301556080820151816004019080519060200190611ab29291906121c2565b5060a0820151816005019080519060200190611acf9291906121c2565b509050508160600180518091906001018152505080608001805180919060010160010b60010b815250506006600081548092919060010191905055505050505050505050565b6000809054906101000a900473ffffffffffffffffffffffffffffffffffffffff1673ffffffffffffffffffffffffffffffffffffffff163373ffffffffffffffffffffffffffffffffffffffff1614611b6e57600080fd5b604051806080016040528084815260200183815260200182815260200160008152506001846040518082805190602001908083835b60208310611bc65780518252602082019150602081019050602083039250611ba3565b6001836020036101000a03801982511681845116808217855250505050505090500191505090815260200160405180910390206000820151816000019080519060200190611c159291906121c2565b506020820151816001019080519060200190611c329291906121c2565b506040820151816002019080519060200190611c4f9291906121c2565b5060608201518160030155905050600460008154809291906001019190505550505050565b600381805160208101820180518482526020830160208501208183528095505050505050600091509050806000018054600181600116156101000203166002900480601f016020809104026020016040519081016040528092919081815260200182805460018160011615610100020316600290048015611d365780601f10611d0b57610100808354040283529160200191611d36565b820191906000526020600020905b815481529060010190602001808311611d1957829003601f168201915b505050505090806001018054600181600116156101000203166002900480601f016020809104026020016040519081016040528092919081815260200182805460018160011615610100020316600290048015611dd45780601f10611da957610100808354040283529160200191611dd4565b820191906000526020600020905b815481529060010190602001808311611db757829003601f168201915b505050505090806002018054600181600116156101000203166002900480601f016020809104026020016040519081016040528092919081815260200182805460018160011615610100020316600290048015611e725780601f10611e4757610100808354040283529160200191611e72565b820191906000526020600020905b815481529060010190602001808311611e5557829003601f168201915b505050505090806003015490806004018054600181600116156101000203166002900480601f016020809104026020016040519081016040528092919081815260200182805460018160011615610100020316600290048015611f165780601f10611eeb57610100808354040283529160200191611f16565b820191906000526020600020905b815481529060010190602001808311611ef957829003601f168201915b505050505090806005018054600181600116156101000203166002900480601f016020809104026020016040519081016040528092919081815260200182805460018160011615610100020316600290048015611fb45780601f10611f8957610100808354040283529160200191611fb4565b820191906000526020600020905b815481529060010190602001808311611f9757829003601f168201915b5050505050905086565b60045481565b60065481565b6040518060a001604052803373ffffffffffffffffffffffffffffffffffffffff168152602001848152602001838152602001828152602001600060010b8152506002846040518082805190602001908083835b60208310612041578051825260208201915060208101905060208303925061201e565b6001836020036101000a038019825116818451168082178552505050505050905001915050908152602001604051809103902060008201518160000160006101000a81548173ffffffffffffffffffffffffffffffffffffffff021916908373ffffffffffffffffffffffffffffffffffffffff16021790555060208201518160010190805190602001906120d79291906121c2565b5060408201518160020190805190602001906120f49291906121c2565b5060608201518160030190805190602001906121119291906121c2565b5060808201518160040160006101000a81548161ffff021916908360010b61ffff160217905550905050600560008154809291906001019190505550505050565b6040518060800160405280606081526020016060815260200160608152602001600081525090565b6040518060a00160405280600073ffffffffffffffffffffffffffffffffffffffff168152602001606081526020016060815260200160608152602001600060010b81525090565b828054600181600116156101000203166002900490600052602060002090601f016020900481019282601f1061220357805160ff1916838001178555612231565b82800160010185558215612231579182015b82811115612230578251825591602001919060010190612215565b5b50905061223e9190612242565b5090565b61226491905b80821115612260576000816000905550600101612248565b5090565b9056fea265627a7a72315820612d892135e09094bf7d5f25eacf44a21feaaa641a05dda1a8f69194eb5c561664736f6c63430005100032",
  "source": "// SPDX-License-Identifier: MIT\npragma solidity 0.5.16;\n\ncontract VaccinationPortal {\n    struct Citizen {\n        string pseudoUUID;\n        string secretCode;\n        string staticKey;\n        uint doses;\n    }\n\n    struct Center {\n        address account;\n        string centerID;\n        string centerAddress;\n        string staticKey;\n        int16 numVaccinations;\n    }\n\n    struct Vaccination {\n        string vaccinationID;\n        string citizenPseudoUUID;\n        string vaccineName;\n        uint doseNumber;\n        string centerID;\n        string healthInfo;\n    }\n\n    /* STATE VARIABLES */\n    address public govtAgency; // the government agency overseeing this chain\n    \n    mapping(string => Citizen) public citizens;\n    mapping(string => Center) public centers; \n    mapping(string => Vaccination) public vaccinations;\n    \n    uint public totalCitizens;    \n    uint public totalCenters;    \n    uint public totalVaccinations;    \n    \n    /* Constructor and methods */\n    constructor () public {\n        govtAgency = msg.sender;\n        totalCitizens = 0;\n        totalCenters = 0;\n        totalVaccinations = 0;\n    }\n\n    function registerCitizen(\n        string memory _pseudoUUID, \n        string memory _secretCode, \n        string memory _staticKey\n    ) public {\n        require(msg.sender == govtAgency);\n\n        citizens[_pseudoUUID] = Citizen(_pseudoUUID, _secretCode, _staticKey, 0);\n        totalCitizens++;\n    }\n\n    function registerCenter(\n        string memory _centerID,\n        string memory _centerAddress,\n        string memory _staticKey\n    ) public {\n        centers[_centerID] = Center(msg.sender, _centerID, _centerAddress, _staticKey, 0);\n        totalCenters++;\n    }\n\n    function vaccinate(\n        string memory _vaccinationID,\n        string memory _citizenPseudoUUID,\n        string memory _vaccineName,\n        uint _doseNumber,\n        string memory _centerID,\n        string memory _healthInfo\n    ) public {\n        Citizen memory citizen = citizens[_citizenPseudoUUID];\n        require(citizen.doses < 2 && citizen.doses < _doseNumber);\n        \n        Center memory center = centers[_centerID];\n        require(center.account == msg.sender);\n\n        vaccinations[_vaccinationID] = Vaccination(\n            _vaccinationID, _citizenPseudoUUID, _vaccineName, _doseNumber, _centerID, _healthInfo\n        );\n\n        citizen.doses++;\n        center.numVaccinations++;\n\n        totalVaccinations++;\n    }\n}\n",
  "sourcePath": "/Users/maniklaldas/Desktop/Research/vaccination-portal/contracts/VaccinationPortal.sol",
  "compiler": {
    "name": "solc",
    "version": "0.5.16+commit.9c3226ce.Emscripten.clang"
  },
  "schemaVersion": "3.4.2",
  "updatedAt": "2021-08-09T08:47:01.053Z",
  "networkType": "ethereum",
  "devdoc": {
    "methods": {}
  },
  "userdoc": {
    "methods": {}
  }
}